:06035200C2A58F80D2A7B6
:080358007F027EEFDEFEDFFCF8
:01036000227A
:0A036D00C2A6120352C2A7020358F1
:10028600CFCDCFCECCCE1200547C007D0A120054C6
:04029600ED2430FF24
:0A029A00D2A6120352C2A7020358B5
:10031300AE07BE0104ED148006BE0209ED243F447E
:0603230080FF12036D22B1
:10033E007F3812036D7F0C12036D7F0612036D7FE3
:04034E000102036D38
:0A037700AC03120313AF0402029A54
:060263008B198A1A891BA9
:10026900120313E4FDAB19AA1AA91B8D8275830029
:0C027900120003FF600612029A0D80E9DB
:010285002256
:0C0230007F0AEA24FFFDE434FFFC7E009E
:08023C008E3B8F3C8C3D8D3E92
:100244007F017E00E4FBEBC3953EE53D6480F874DA
:0E0254008098500AAC3BAD3C1200420B80E893
:010262002279
:0402C2008A2E8B2FC6
:1002C600120313AA30EAD39400400D120230AC2E6A
:0802D600AD2F1202861A80ED23
:0102DE0022FD
:10018500120313C3EA64809480400B7F2B12029AFA
:100195008A2A8B2B800E7F2D12029AC3E49BF52BA6
:1001A500E49AF52AAA29EAD39400400D120230AC4C
:0901B5002AAD2B1202861A80ED1E
:0101BE00221E
:0401BF008A338B34C0
:1001C300120313AA35EAD3940040297F1012023296
:1001D300AC33AD34CFCDCFCECCCE120054EF540FD1
:1001E300FEC3940AEE5004243080022437FF120227
:0401F3009A1A80D103
:0101F70022E5
:0401F8008A388B397D
:1001FC00120313AA3AEAD394004028EA24FFFDE440
:10020C0034FFFC7F027E0012023CAC38AD39CFCDFE
:10021C00CFCECCCE120054EF54012430FF12029AF0
:03022C001A80D263
:01022F0022AC
:10011F0012033E7FDC7E05120329751C00751D003E
:10012F00751E097B007A0079081200A9E50875F0A1
:10013F000A842430F50AE50875F00A84E5F02430C6
:10014F00F50B750C52750D48750E20750F20E509CE
:10015F0075F00A842430F510E50975F00A84E5F08E
:10016F002430F5117512437B007A00790A7D017FE7
:06017F0001120263809DE5
:03038100DFFE227A
:1002A400D3EF9400EE940040147D6E7C00ED1D703D
:0D02B400011CED4C70F7EF1F70E61E80E39B
:0102C100221A
:1002FC00D2B27F02120381C2B27F147E001202A41A
:07030C00D2B27F1E02038143
:1002DF00E4FEFD30B2FD7F08120381EE25E0FE3013
:0C02EF00B2010E20B2FD0DBD08E9AF0603
:0102FB0022E0
:0600A9008B198A1A891B65
:1000AF001202FC20B26930B2FD7F281203811202C6
:1000BF00DF8F1F1202DFA9071202DFAC071202DF68
:1000CF00AB071202DF8F247F19120381E9FFE51FAF
:1000DF002FFFE433FEEC7583002FFFE5833EFEEB2D
:1000EF002FFFE5833EFEE524B5070EE583B5060930
:1000FF00851F2089218C228B23AB19AA1AA91BE5F6
:0F010F0020120030AB1CAA1DA91EE522120030E1
:01011E0022BE
:10032900EF1FAC0670011E4C600A7D027CEFDCFEFB
:04033900DDFC80EC7B
:01033D00229D
:0300000002036197
:0C036100787FE4F6D8FD75813E02011F94
:10000300BB010CE58229F582E5833AF583E02250B2
:1000130006E92582F8E622BBFE06E92582F8E222FC
:0D002300E58229F582E5833AF583E4932216
:10003000BB010689828A83F0225002F722BBFE01AF
:02004000F322A9
:10004200EF8DF0A4A8F0CF8CF0A428CE8DF0A42ED2
:02005200FE228C
:10005400BC000BBE0029EF8DF084FFADF022E4CC90
:10006400F875F008EF2FFFEE33FEEC33FCEE9DEC59
:10007400984005FCEE9DFE0FD5F0E9E4CEFD22ED9F
:10008400F8F5F0EE8420D21CFEADF075F008EF2FE9
:10009400FFED33FD4007985006D5F0F222C398FDDA
:0500A4000FD5F0EA2277
:00000001FF
