:10082A00EF1FAC0670011E4C600A7D027CEFDCFEF5
:04083A00DDFC80EC75
:01083E002297
:100868002020202020202020202020202020202080
:01087800007F
:10054200012E002020340000000000000000000006
:100552000000000000000000000000000000000099
:100562000000000000002020080000000000000041
:100572000000000000000000000000000000000079
:10058200000000000000000000012900012D000110
:100592002A0A012F000155000130000131000154E7
:0C05A2000001280102320000022B0000C2
:1005AF0020B1147F147E0012082A30B1FD7F147E13
:1005BF000012082A752E0120B0147F147E00120835
:1005CF002A30B0FD7F147E0012082A752E0220B249
:1005DF00177F147E0012082A30B2FD7F147E00129E
:1005EF00082A752E03E4F53020B3177F147E00120E
:1005FF00082A30B3FD7F147E0012082A752E04E4FA
:05060F00F531AF2E22C1
:10020A00E4F5621207F91208541205AF8F2AC3E502
:10021A003394D0E5329407405FE4F52FE52B6480F0
:10022A0094804054E52A6403604EE52A64046048D9
:10023A007408252CF8E6FF1208BBE52C152C700271
:10024A00152B2408F8E4F6C3E52B64809480500546
:10025A00E4F52BF52C7BFF7A0879687D017F011282
:10026A00079B7B007A0079087D017F0112079B05B5
:10027A00557FE87E0312082AE529605C7BFF7A082D
:10028A0079687D017F0112079BE4F529FB7A0079E1
:10029A0034120722E52DD39410500D7B007A007991
:1002AA00347D017F0112079B78087C007D007B006A
:1002BA007A00793412019F7B007A00793412083F60
:1002CA008E2B8F2C7E007F207D007B007A00793474
:1002DA001201BCE4F52D8013E52F600F7F017E002B
:1002EA0012082A0533E53370020532E52A640370E1
:1002FA0044E5307040753001E52F7008052CE52C77
:10030A007002052BE4F561C3E561952CE52B648049
:10031A00F8748098501974082561F8E6FD7C00AFDE
:10032A00611207777F057E0012082A056180D88549
:10033A002C54855562E52A64046003020213E531F0
:10034A006003020213FE7F20FDFB7A007908120186
:10035A00BCE4F561E561C395545010AF611206F231
:10036A0074082561F8A607056180E9855431E4F52A
:10037A0061E56214FFE561C39F500EAF54055474E2
:10038A00082FF8762A056180E8853154753101E431
:10039A00F5557BFF7A0879687D017F0112079B7BFF
:0F03AA00007A0079087D017F0112079B02021380
:030023000204CE06
:1004CE00C0E0C0F0C083C082C0D075D000C000C0F4
:0D04DE0001C002C003C004C005C006C00775
:1004EB00755600309836859956E556640A601C752A
:1004FB005A00755B00755C56755D00755E017B007F
:10050B007A007934120445052D800F752901752F5A
:0C051B0001753200753300752E00C29887
:10052700D007D006D005D004D003D002D001D00028
:0B053700D0D0D082D083D0F0D0E032D2
:1007F90075985043878053890F438920758BF47509
:0B0809008DF4C2ABD28ED2AFD2AC2275
:0808BB008F993099FDC29922CA
:100722008B638A648965AB63AA64A965120026603B
:100732001A0565E5657002056414F9120026FF12B8
:0C07420008BB7F0A7E0012082A80DB2220
:06087900C2A58F80D2A78A
:08087F007F027EEFDEFEDFFCCC
:01088700224E
:0A089400C2A6120879C2A702087F6D
:10000300CFCDCFCECCCE12007E7C007D0A12007EF7
:04001300ED2430FFA9
:0A001700D2A6120879C2A702087FE2
:10081400AE07BE0104ED148006BE0209ED243F4478
:0608240080FF120894227F
:100854007F381208947F0C1208947F061208947F44
:0408640001020894F1
:0A089E00AC03120814AF04020017A7
:06079B008B638A6489658E
:1007A100120814E4FDAB63AA64A9658D8275830008
:0C07B10012003FFF60061200170D80E9E7
:0107BD002219
:0C06BF007F0AEA24FFFDE434FFFC7E000B
:0806CB008E7C8F7D8C7E8D7FFB
:1006D3007F017E00E4FBEBC3957FE57E6480F874C5
:0E06E3008098500AAC7CAD7D12006C0B80E854
:0106F10022E6
:0407DC008A6F8B7025
:1007E000120814AA71EAD39400400D1206BFAC6F30
:0807F000AD701200031A80ED48
:0107F80022DE
:10061400120814C3EA64809480400B7F2B120017E5
:100624008A6B8B6C800E7F2D120017C3E49BF56CD4
:10063400E49AF56BAA6AEAD39400400D1206BFACA3
:090644006BAD6C1200031A80ED8D
:01064D00228A
:04064E008A748B75AA
:10065200120814AA76EAD3940040297F101206C128
:10066200AC74AD75CFCDCFCECCCE12007EEF540F91
:10067200FEC3940AEE5004243080022437FF120095
:04068200171A80D1F2
:010686002251
:040687008A798B7A67
:10068B00120814AA7BEAD394004028EA24FFFDE465
:10069B0034FFFC7F027E001206CBAC79AD7ACFCD56
:1006AB00CFCECCCE12007EEF54012430FF120017B8
:0306BB001A80D2D0
:0106BE002219
:100777008F638C648D651208B27FA012074E120832
:1007870088AF6312074E120888AF6512074E12082A
:04079700880208C309
:0206F2008F6314
:1006F4001208B27FA012074E120888AF6312074E89
:100704001208881208B27FA112074E120888120735
:0D071400BE8F647F011208A81208C3AF64F5
:0107210022B5
:0908B200D2A0D2A1C2A0C2A12271
:0708C300C2A0D2A1D2A022C5
:02074E00AD07F5
:10075000E4FB74807E00A803088006CEA2E713CED7
:1007600013D8F8FFEDF582EF558224FF92A0D2A1B5
:06077000C2A10BBB08DC76
:010776002260
:1007BE00E4FFD2A0FED2A130A00D7480A80608805E
:0D07CE0002C313D8FC4207C2A10EBE08E80A
:0107DB0022FB
:0A08A800EF24FF92A0D2A1C2A1220A
:0B088800D2A0D2A1A2A0E433FFC2A1C5
:010893002242
:030000000203B93F
:0C03B900787FE4F6D8FD75817F02040017
:10002600BB010689828A83E0225002E722BBFE02D8
:09003600E32289828A83E493220B
:10003F00BB010CE58229F582E5833AF583E0225076
:10004F0006E92582F8E622BBFE06E92582F8E222C0
:0D005F00E58229F582E5833AF583E49322DA
:10006C00EF8DF0A4A8F0CF8CF0A428CE8DF0A42EA8
:02007C00FE2262
:10007E00BC000BBE0029EF8DF084FFADF022E4CC66
:10008E00F875F008EF2FFFEE33FEEC33FCEE9DEC2F
:10009E00984005FCEE9DFE0FD5F0E9E4CEFD22ED75
:1000AE00F8F5F0EE8420D21CFEADF075F008EF2FBF
:1000BE00FFED33FD4007985006D5F0F222C398FDB0
:0500CE000FD5F0EA224D
:100445008B578A588959E4F55FF560D3E55E9400CA
:10045500E55D64809480406AAB57AA58A9598560C8
:1004650082855F8312003F600A0560E56070E905DB
:100475005F80E5AB5AAA5BA95C1200266034055C77
:10048500E55C7002055B14F9120026FFAB57AA580C
:10049500A9590560E560AC5F7002055F14F5828CB3
:1004A50083EF1201E8E55E155E7002155D14455D8A
:1004B50070C1AB57AA58A959856082855F83E4123C
:0904C50001E8AB57AA58A959221D
:1000D300E709F60870FA8046E709F20870FA803EED
:1000E30088828C83E709F0A370FA807EE309F6081F
:1000F30070FA8076E309F20870FA806E88828C8346
:10010300E309F0A370FA806289828A83E0A3F60888
:1001130070FA805689828A83E0A3F20870FA804AD3
:1001230080D280FA80C680D4806580F280318010CE
:1001330080A680EA809A80A880DA80E280CA803133
:1001430089828A83ECFAE493A3C8C582C8CCC583A9
:10015300CCF0A3C8C582C8CCC583CC70E9800D8917
:10016300828A83E493A3F60870F9ECFAA9F0EDFB15
:100173002289828A83ECFAE0A3C8C582C8CCC583EE
:10018300CCF0A3C8C582C8CCC583CC70EA80DD8916
:10019300828A83E493A3F20870F980CE88F0ED2479
:1001A30002B4040050C4F582EB2402B4040050BA34
:0901B300232345822390012373EC
:10083F00E4FFFE120026600C0FEF70010E09E97045
:05084F00F20A80EF2217
:1001BC00EF4E6012EF60010EEDBB010B89828A835A
:1001CC00F0A3DFFCDEFA2289F05007F709DFFCA967
:0C01DC00F022BBFEFCF309DFFCA9F022BE
:1003C50002020AE493A3F8E493A34003F68001F242
:1003D50008DFF48029E493A3F85407240CC8C33339
:1003E500C4540F4420C8834004F456800146F6DF08
:1003F500E4800B0102040810204080900542E47E51
:10040500019360BCA3FF543F30E509541FFEE493FC
:10041500A360010ECF54C025E060A840B8E493A3C3
:10042500FAE493A3F8E493A3C8C582C8CAC583CAEE
:10043500F0A3C8C582C8CAC583CADFE9DEE780BEA6
:0105AE00004C
:1001E800F8BB010DE58229F582E5833AF583E8F04D
:1001F800225006E92582C8F622BBFE05E92582C8F9
:02020800F222E0
:00000001FF
