:1003C900EF1FAC0670011E4C600A7D027CEFDCFE5B
:0403D900DDFC80ECDB
:0103DD0022FD
:0B043700D288C289D2A8D2AFD2B8226E
:06046A001203F202043748
:0D041100E50F6006E4F50F7F01227F002259
:0D041E00E50D6006E4F50D7F01227F002250
:03047600AF0C22A6
:03047900AF0B22A4
:03000300020006F2
:10000600C0E0C0F0C083C082C0D075D000C000C0C0
:1000160001C002C003C004C005C006C007E50870E1
:100026000CFFFE1204427F011204708049E5086449
:100036000170491204618E098F0AE4FFFE12044220
:10004600D3E50A94B2E509942C4010E50A9482E5BA
:100056000994345006750802020137D3E50A9498CC
:10006600E50994244010E50A9468E509942C5006A5
:10007600750D0102012F750801020137E5086402BA
:1000860060030201371204618E098F0AE4FFFE1233
:100096000442D3E50A9414E5099402402CE50A9437
:1000A600FCE50994055022E50E131313541F241082
:1000B600F8C000E6FFE50E5407FE7401A8060880A6
:1000C60002C333D8FCF45F8034D3E50A9426E509ED
:1000D60094064030E50A940EE509940A5026E50E8A
:1000E600131313541F2410F8C000E6FFE50E54073F
:1000F600FE7401A806088002C333D8FC4FD000F670
:10010600050E8006750E00750801E50EC3942040A5
:1001160020750E00E511F4B5100FE513F4B51209BC
:1001260085100C85120B750F01E4FF12047075081B
:1001360000D007D006D005D004D003D002D001D01D
:0C01460000D0D0D082D083D0F0D0E032C6
:06040200C2A58F80D2A705
:080408007F027EEFDEFEDFFC47
:0104100022C9
:0A044D00C2A6120402C2A7020408AE
:10035A00CFCDCFCECCCE1201917C007D0A12019175
:04036A00ED2430FF4F
:0A036E00D2A6120402C2A70204087E
:1003B300AE07BE0104ED148006BE0209ED243F44DE
:0603C30080FF12044D2230
:1003DE007F3812044D7F0C12044D7F0612044D7FA0
:0403EE000102044DB7
:0A045700AC031203B3AF0402036EFE
:060337008B148A158916E3
:10033D001203B3E4FDAB14AA15A9168D82758300C3
:0C034D00120152FF600612036E0D80E9E1
:010359002281
:0C0304007F0AEA24FFFDE434FFFC7E00C9
:080310008E198F1A8C1B8D1C45
:100318007F017E00E4FBEBC3951CE51B6480F87449
:0E0328008098500AAC19AD1A12017F0B80E8C4
:0103360022A4
:040396008A168B1721
:10039A001203B3AA18EAD39400400D120304AC1650
:0803AA00AD1712035A1A80ED91
:0103B2002228
:100259001203B3C3EA64809480400B7F2B12036EB0
:100269008A228B23800E7F2D12036EC3E49BF52314
:10027900E49AF522AA21EAD39400400D120304ACB2
:0902890022AD2312035A1A80ED84
:010292002249
:040293008A168B1725
:100297001203B3AA18EAD3940040297F1012030669
:1002A700AC16AD17CFCDCFCECCCE120191EF540FF8
:1002B700FEC3940AEE5004243080022437FF120351
:0402C7006E1A80D15A
:0102CB002210
:0402CC008A268B27CC
:1002D0001203B3AA28EAD394004028EA24FFFDE4DD
:1002E00034FFFC7F027E00120310AC26AD27CFCD79
:1002F000CFCECCCE120191EF54012430FF12036E09
:030300001A80D28E
:0103030022D7
:10037800414444522020434D4420204E554D0030E6
:0E038800302020202030302020203030300067
:1001E6001203DE7BFF7A0379787D017F01120337E4
:1001F6007BFF7A0379877D017F0212033712046A37
:10020600120411EF700612041EEF60F41204768FCA
:100216002B1204798F2AE52BFB7A007518027D01D3
:100226007F02120293E52AFB7A007518027D077F8A
:1002360002120293E52AB415021529E52AB4090229
:100246000529E529FB7A007518037D0C7F02120348
:030256009680ADE2
:1003F2005389F0438901E4F58AF58CC28DC28C22BF
:0B044200AD07AC068C8CAF058F8A2242
:09046100AF8CEFFEAD8AEDFF2225
:06047000EF24FF928C2234
:0300000002042BCC
:0C042B00787FE4F6D8FD75812B0201E615
:10015200BB010CE58229F582E5833AF583E0225062
:1001620006E92582F8E622BBFE06E92582F8E222AC
:0D017200E58229F582E5833AF583E49322C6
:10017F00EF8DF0A4A8F0CF8CF0A428CE8DF0A42E94
:02018F00FE224E
:10019100BC000BBE0029EF8DF084FFADF022E4CC52
:1001A100F875F008EF2FFFEE33FEEC33FCEE9DEC1B
:1001B100984005FCEE9DFE0FD5F0E9E4CEFD22ED61
:1001C100F8F5F0EE8420D21CFEADF075F008EF2FAB
:1001D100FFED33FD4007985006D5F0F222C398FD9C
:0501E1000FD5F0EA2239
:00000001FF
