:10000E00EF1FAC0670011E4C600A7D027CEFDCFE19
:04001E00DDFC80EC99
:0100220022BB
:0605C200C2A58F80D2A744
:0805C8007F027EEFDEFEDFFC86
:0105D0002208
:0A05D100C2A61205C2C2A70205C8A7
:10051A00CFCDCFCECCCE12007E7C007D0A12007EDB
:04052A00ED2430FF8D
:0A052E00D2A61205C2C2A70205C83A
:10058700AE07BE0104ED148006BE0209ED243F4408
:0605970080FF1205D122D5
:10059D007F381205D17F0C1205D17F061205D17F50
:0405AD00010205D171
:0A05DB00AC03120587AF0402052EE1
:0604F7008B3A8A3B893CB0
:1004FD00120587E4FDAB3AAA3BA93C8D82758300BA
:0C050D0012003FFF600612052E0D80E971
:0105190022BF
:0C043A007F0AEA24FFFDE434FFFC7E0092
:080446008E3F8F408C418D4276
:10044E007F017E00E4FBEBC39542E5416480F874C6
:0E045E008098500AAC3FAD4012006C0B80E855
:01046C00226D
:040538008A3C8B3D31
:10053C00120587AA3EEAD39400400D12043AAC3C53
:08054C00AD3D12051A1A80ED05
:010554002284
:10038F00120587C3EA64809480400B7F2B12052EE1
:10039F008A488B49800E7F2D12052EC3E49BF549A9
:1003AF00E49AF548AA47EAD39400400D12043AACF8
:0903BF0048AD4912051A1A80ED3F
:0103C8002212
:0403C9008A4C8B4D82
:1003CD00120587AA4EEAD3940040297F1012043CEF
:1003DD00AC4CAD4DCFCDCFCECCCE12007EEF540F69
:1003ED00FEC3940AEE5004243080022437FF120518
:0403FD002E1A80D163
:0104010022D8
:040402008A518B523E
:10040600120587AA53EAD394004028EA24FFFDE4A4
:1004160034FFFC7F027E00120446AC51AD52CFCDB4
:10042600CFCECCCE12007EEF54012430FF12052E23
:030436001A80D257
:0104390022A0
:1005B10053706565643A530053310053320053332D
:0105C1000039
:10046D00012914012B00012C00012D002020080072
:10047D00000000000000000000000000000000006F
:10048D00000000000000000000000000000000015E
:02049D00280035
:1001CF0012055512059D120570E5296401702E7BED
:1001DF00FF7A0579B17D017F011204F7753E017B2E
:1001EF00017A007D087F01120538E52B600F752A13
:1001FF00327BFF7A0579B91204A0E4F52BE5296467
:10020F0002702E7BFF7A0579B17D017F011204F711
:10021F00753E017B027A007D087F01120538E52CBF
:10022F00600F752A4B7BFF7A0579BC1204A0E4F5A9
:10023F002CE529640370927BFF7A0579B17D017FEC
:10024F00011204F7753E017B037A007D087F0112CE
:10025F000538E52D70030201D8752A647BFF7A05F6
:0B026F0079BF1204A0E4F52D0201D8B5
:03002300020121B6
:10012100C0E0C0F0C083C082C0D075D000C000C0A4
:0D01310001C002C003C004C005C006C00725
:10013E00752F0030987085992FE52F640A601C7515
:10014E00330075340075352F7536007537017B0019
:10015E007A007908120306052880127E007F207D22
:10016E00007B007A0079081200D3752800E5286418
:10017E00027031E508B4532CE50924CE60121460E8
:10018E001A2402701F752901752800752B01801421
:10019E00752902752800752C0180097529037528AB
:0601AE0000752D01C2984E
:1001B400D007D006D005D004D003D002D001D0009F
:0B01C400D0D0D082D083D0F0D0E03249
:03000B000204CC20
:1004CC00C0E0C0F0C0D0758A9C758CFF052EE52E5F
:1004DC0075F0648485F02EE52EC3952A5004D290D5
:0B04EC008002C290D0D0D0F0D0E032EF
:1005550075985043878053890F438920758BF475AF
:0B0565008DF4C2ABD28ED2AFD2AC221C
:080003008F993099FDC299228A
:1004A0008B3A8A3B893CAB3AAA3BA93C12002660B6
:1004B0001A053CE53C7002053B14F9120026FF12B8
:0C04C00000037F0A7E0012000E80DB2289
:100570005389F0438901758A9C758CFFC28DD28C9A
:07058000D2A9D2AFC2B922DB
:0300000002027A7F
:0C027A00787FE4F6D8FD7581530202C1C4
:10002600BB010689828A83E0225002E722BBFE02D8
:09003600E32289828A83E493220B
:10003F00BB010CE58229F582E5833AF583E0225076
:10004F0006E92582F8E622BBFE06E92582F8E222C0
:0D005F00E58229F582E5833AF583E49322DA
:10006C00EF8DF0A4A8F0CF8CF0A428CE8DF0A42EA8
:02007C00FE2262
:10007E00BC000BBE0029EF8DF084FFADF022E4CC66
:10008E00F875F008EF2FFFEE33FEEC33FCEE9DEC2F
:10009E00984005FCEE9DFE0FD5F0E9E4CEFD22ED75
:1000AE00F8F5F0EE8420D21CFEADF075F008EF2FBF
:1000BE00FFED33FD4007985006D5F0F222C398FDB0
:0500CE000FD5F0EA224D
:100306008B308A318932E4F538F539D3E5379400F4
:10031600E53664809480406AAB30AA31A9328539CB
:100326008285388312003F600A0539E53970E90590
:100336003880E5AB33AA34A935120026603405357A
:10034600E5357002053414F9120026FFAB30AA31E8
:10035600A9320539E539AC387002053814F5828CB6
:1003660083EF1200FFE53715377002153614453650
:1003760070C1AB30AA31A932853982853883E4123F
:0903860000FFAB30AA31A93222BC
:1000D300EF4E6012EF60010EEDBB010B89828A8344
:1000E300F0A3DFFCDEFA2289F05007F709DFFCA951
:0C00F300F022BBFEFCF309DFFCA9F022A8
:100286000201CFE493A3F8E493A34003F68001F2BE
:1002960008DFF48029E493A3F85407240CC8C33379
:1002A600C4540F4420C8834004F456800146F6DF48
:1002B600E4800B010204081020408090046DE47E67
:1002C600019360BCA3FF543F30E509541FFEE4933D
:1002D600A360010ECF54C025E060A840B8E493A304
:1002E600FAE493A3F8E493A3C8C582C8CAC583CA2F
:1002F600F0A3C8C582C8CAC583CADFE9DEE780BEE7
:01049F00005C
:1000FF00F8BB010DE58229F582E5833AF583E8F037
:10010F00225006E92582C8F622BBFE05E92582C8E2
:02011F00F222CA
:00000001FF
