:10027200EF1FAC0670011E4C600A7D027CEFDCFEB3
:04028200DDFC80EC33
:010286002255
:06029B00C2A58F80D2A76E
:0802A1007F027EEFDEFEDFFCB0
:0102A9002232
:0A02B600C2A612029BC2A70202A119
:10022100CFCDCFCECCCE1200427C007D0A1200424F
:04023100ED2430FF89
:0A023500D2A612029BC2A70202A18A
:10025C00AE07BE0104ED148006BE0209ED243F4436
:06026C0080FF1202B62221
:100287007F381202B67F0C1202B67F061202B67FC3
:04029700010202B6A8
:0A02C000AC0312025CAF0402023529
:0601FE008B088A09890A42
:1002040012025CE4FDAB08AA09A90A8D8275830079
:0C021400120003FF60061202350D80E9A5
:0102200022BB
:0C019B007F0AEA24FFFDE434FFFC7E0034
:0801A7008E0D8F0E8C0F8D10E0
:1001AF007F017E00E4FBEBC39510E50F6480F874CC
:0E01BF008098500AAC0DAD0E1200300B80E897
:0101CD00220F
:04023F008A0A8B0B91
:1002430012025CAA0CEAD39400400D12019BAC0A83
:08025300AD0B1202211A80ED2F
:01025B002280
:1000F00012025CC3EA64809480400B7F2B120235AD
:100100008A168B17800E7F2D120235C3E49BF517DC
:10011000E49AF516AA15EAD39400400D12019BAC9F
:0901200016AD171202211A80ED40
:0101290022B3
:04012A008A1A8B1B87
:10012E0012025CAA1CEAD3940040297F1012019D92
:10013E00AC1AAD1BCFCDCFCECCCE120042EF540FAA
:10014E00FEC3940AEE5004243080022437FF1202BC
:04015E00351A80D1FD
:01016200227A
:040163008A1F8B2044
:1001670012025CAA21EAD394004028EA24FFFDE4A6
:1001770034FFFC7F027E001201A7AC1FAD20CFCD5C
:10018700CFCECCCE120042EF54012430FF120235FD
:030197001A80D2F9
:01019A002242
:0402CA00434F32006C
:1001CE001202877BFF7A0279CA7D017F011201FE3E
:1001DE007FEC1200978E228F23750C03AB23AA227D
:1001EE007D017F0212023F7F647E0012027280E068
:02009700AD07B3
:10009900E4F508F509C2B6C2B5FB74807E00A80371
:1000A900088006CEA2E713CE13D8F8FFEDF582EF4C
:1000B900558224FF92B4D2B6C2B60BBB08DCE4FB6E
:1000C900D2B6C2B630B714E47E80A803088005CE44
:1000D900C313CE13D8F94209EE42080BBB10E1D283
:0600E900B5E508FF7E00F2
:0100EF0022EE
:030000000202AA4F
:0C02AA00787FE4F6D8FD7581230201CEB8
:10000300BB010CE58229F582E5833AF583E02250B2
:1000130006E92582F8E622BBFE06E92582F8E222FC
:0D002300E58229F582E5833AF583E4932216
:10003000EF8DF0A4A8F0CF8CF0A428CE8DF0A42EE4
:02004000FE229E
:10004200BC000BBE0029EF8DF084FFADF022E4CCA2
:10005200F875F008EF2FFFEE33FEEC33FCEE9DEC6B
:10006200984005FCEE9DFE0FD5F0E9E4CEFD22EDB1
:10007200F8F5F0EE8420D21CFEADF075F008EF2FFB
:10008200FFED33FD4007985006D5F0F222C398FDEC
:050092000FD5F0EA2289
:00000001FF
