:1000030075985043878053890F438920758BF47506
:0B0013008DF4C2ABD28ED2AFD2AC2273
:08077C008F993099FDC299220A
:1006FF008B658A668967AB65AA66A9671200266053
:10070F001A0567E5677002056614F9120026FF12D5
:0C071F00077C7F0A7E0012076780DB2247
:10074D004C31004C32004C3300424545504F4E2148
:0A075D0000424545504F464621007A
:1005C30001431401440001450001460001470001B5
:1005D3004800014200202008000000000000000045
:1005E3000000000000000000000000000000000008
:1005F3000000000000000000052864696D00000A87
:100603002D424545504F4E000000000A37424545F4
:0A061300504F464600000001410070
:10025500120003E54370187D0AFC7F011206317D0B
:100265000B7C007F021206317F147E00120767E5C2
:1002750043640170287D0AFC7F011206317D0B7CE9
:10028500007F021206317F0A7E00120767E544608F
:100295000C7BFF7A07794D1206FFE4F544E54364CC
:1002A5000270287D0AFC7F011206317D0B7C007FE0
:1002B500021206317F057E00120767E545600C7B5B
:1002C500FF7A0779501206FFE4F545E543B40322AA
:1002D5007D0A7C007F011206317D0B7C007F0212B6
:1002E5000631E546600C7BFF7A0779531206FFE479
:1002F500F546E5436404704F7D10FC7F011206311D
:100305007D107C007F02120631E54760327BFF7A63
:100315000779561206FFE4F542AF427E0012072B1D
:100325007F0A7E00120767C2A5C374649542FFE485
:100335009400FE1207670542E542C3946440DAB2B1
:10034500A5120784E4F547E54364056003020258F6
:100355007D10FC7F011206317D107C007F021206A4
:1003650031E54860327BFF7A07795E1206FF7542F8
:1003750064AF427E0012072B7F0A7E00120767C218
:10038500A5C374649542FFE49400FE120767154205
:0F039500E542D3940050DAC2A5E4F548020258BD
:030023000203A431
:1003A400C0E0C0F0C083C082C0D075D000C000C01F
:0D03B40001C002C003C004C005C006C007A0
:1003C100755A0020980302049385995AE55A640AE4
:1003D100601C755E00755F0075605A75610075621D
:1003E100017B007A00790812053A054180127E00EE
:1003F1007F207D007B007A0079081201DA754100C7
:10040100E541B4031678087C007D007B007A007911
:10041100281201BDEF7004F543F541E54164027016
:1004210031E508B44C2CE50924CE601214601A247D
:1004310002701F75430175410075440180147543B5
:1004410002754100754501800975430375410075C9
:100451004601E541B4061A78087C007D007B007AEC
:1004610000792D1201BDEF7008754304F541754700
:1004710001E541B4071A78087C007D007B007A0011
:1004810079371201BDEF7008754305F541754801D3
:02049100C2980F
:10049300D007D006D005D004D003D002D001D000BD
:0B04A300D0D0D082D083D0F0D0E03267
:10076700EF1FAC0670011E4C600A7D027CEFDCFEB9
:04077700DDFC80EC39
:01077B00225B
:10061D0011493F065B4F666D7D077F6F777C395EB5
:03062D00797100E0
:10063100EF14B40800505490064675F003A4C58326
:1006410025F0C5837302065E020662020666020693
:100651006A02066E02067602067E020686D2A48031
:100661000ED2A48012D2A48016D2A4801AC2A4D21F
:10067100A3D2A28016C2A4D2A3C2A2800EC2A4C2D7
:10068100A3D2A28006C2A4C2A3C2A274492DF8E6D5
:0D069100F5807F017E00120767E4F58022EE
:10069E00E4F56820B1137F14FE12076730B1FD7FB9
:1006AE00147E0012076775680120B0147F147E0057
:1006BE0012076730B0FD7F147E001207677568025F
:1006CE0020B2147F147E0012076730B2FD7F147EB5
:1006DE000012076775680320B3147F147E0012079B
:1006EE006730B3FD7F147E00120767756804AF682C
:0106FE0022D9
:05078400007FF7DFFE1D
:01078900224D
:04072B00AD07AC0664
:10072F00E4FBFAED25E0FFEC33FEC3EB9FEA9E50AE
:0D073F000CB2A51207840BBB00010A80E676
:01074C00228A
:030000000204AE49
:0C04AE00787FE4F6D8FD7581680204F543
:10002600BB010689828A83E0225002E722BBFE02D8
:09003600E32289828A83E493220B
:10053A008B5B8A5C895DE4F563F564D3E5629400BC
:10054A00E56164809480406AAB5BAA5CA95D8564BE
:10055A0082856383120206600A0564E56470E90510
:10056A006380E5AB5EAA5FA960120026603405606D
:10057A00E5607002055F14F9120026FFAB5BAA5C06
:10058A00A95D0564E564AC637002056314F5828CA9
:10059A0083EF120233E56215627002156114456138
:1005AA0070C1AB5BAA5CA95D856482856383E41232
:0905BA000233AB5BAA5CA95D22CF
:10003F00E3F5F009E208B5F06D606B80F3E3F5F0DE
:10004F0009E608B5F060605E80F387F009E608B551
:10005F00F054605280F487F009E208B5F04860462A
:10006F0080F488828C8387F009E0A3B5F03860367E
:10007F0080F488828C8387F009E493A3B5F027601E
:10008F002580F388828C83E3F5F009E0A3B5F016A1
:10009F00601480F388828C83E3F5F009E493A3B5B1
:1000AF00F004600280F202016A808580E7808E8012
:1000BF00D2803C8015806C807E809B80B5808B8049
:1000CF00A1804F8070803A02017689828A83ECFA90
:1000DF00E493F5F0A3C8C582C8CCC583CCE493A341
:1000EF00C8C582C8CCC583CCB5F070606E80E1897D
:1000FF00828A83E493F5F0A3E208B5F05E605C803A
:10010F00F289828A83E0F5F0A3E608B5F04D604BE3
:10011F0080F389828A83E0F5F0A3E208B5F03C60B2
:10012F003A80F389828A83E493F5F0A3E608B5F069
:10013F002A602880F2805389828A83ECFAE493F54F
:10014F00F0A3C8C582C8CCC583CCE0A3C8C582C8FC
:10015F00CCC583CCB5F004600280E27FFFB5F0021E
:10016F000F2240027F012289828A83ECFAE0F5F0A8
:10017F00A3C8C582C8CCC583CCE0A3C8C582C8CCF0
:10018F00C583CCB5F0D560D380E389828A83ECFA3E
:10019F00E0F5F0A3C8C582C8CCC583CCE493A3C84F
:1001AF00C582C8CCC583CCB5F0B160AF80E288F012
:1001BF00ED2402B4040050A3F582EB2402B4040032
:0B01CF00509923234582239000B87351
:1001DA00EF4E6012EF60010EEDBB010B89828A833C
:1001EA00F0A3DFFCDEFA2289F05007F709DFFCA949
:0C01FA00F022BBFEFCF309DFFCA9F022A0
:1004BA00020255E493A3F8E493A34003F68001F201
:1004CA0008DFF48029E493A3F85407240CC8C33343
:1004DA00C4540F4420C8834004F456800146F6DF12
:1004EA00E4800B01020408102040809005C3E47EDA
:1004FA00019360BCA3FF543F30E509541FFEE49307
:10050A00A360010ECF54C025E060A840B8E493A3CD
:10051A00FAE493A3F8E493A3C8C582C8CAC583CAF8
:10052A00F0A3C8C582C8CAC583CADFE9DEE780BEB0
:0106300000C9
:10020600BB010CE58229F582E5833AF583E02250AD
:1002160006E92582F8E622BBFE06E92582F8E222F7
:0D022600E58229F582E5833AF583E4932211
:10023300F8BB010DE58229F582E5833AF583E8F001
:10024300225006E92582C8F622BBFE05E92582C8AD
:02025300F22295
:00000001FF
