:1000030075985043878053890F438920758BF47506
:0B0013008DF4C2ABD28ED2AFD2AC2273
:080278008F993099FDC2992213
:100207008B288A29892AAB28AA29A92A12013B60A7
:100217001A052AE52A7002052914F912013BFF1273
:0C02270002787F0A7E0012026380DB2256
:100233000A0E00000000000000000000010D000194
:080243001800011A0001080077
:10024C00120003E50860FCE4F508750C01850E0D41
:07025C00AF0D12027880ECE7
:030023000201A334
:1001A300C0E0C0F0C083C082C0D075D000C000C022
:0D01B30001C002C003C004C005C006C007A3
:1001C000751D0030982685991DE51D640A601B7514
:1001D000210075220075231D7524007525017B0003
:0C01E0007A00790E1200B2750801C29876
:1001EC00D007D006D005D004D003D002D001D00067
:0B01FC00D0D0D082D083D0F0D0E03211
:10026300EF1FAC0670011E4C600A7D027CEFDCFEC2
:04027300DDFC80EC42
:010277002264
:03000000020026D5
:0C002600787FE4F6D8FD75812A02006D99
:10013B00BB010689828A83E0225002E722BBFE02C2
:09014B00E32289828A83E49322F5
:1000B2008B1E8A1F8920E4F526F527D3E5259400B7
:1000C200E52464809480406AAB1EAA1FA92085277C
:1000D20082852683120154600A0527E52770E90507
:1000E2002680E5AB21AA22A92312013B6034052315
:1000F200E5237002052214F912013BFFAB1EAA1F71
:10010200A9200527E527AC267002052614F5828C66
:1001120083EF120181E5251525700215241445246B
:1001220070C1AB1EAA1FA920852782852683E412EF
:090132000181AB1EAA1FA92022C5
:1000320002024CE493A3F8E493A34003F68001F296
:1000420008DFF48029E493A3F85407240CC8C333CF
:10005200C4540F4420C8834004F456800146F6DF9E
:10006200E4800B0102040810204080900233E47EF9
:10007200019360BCA3FF543F30E509541FFEE49393
:10008200A360010ECF54C025E060A840B8E493A35A
:10009200FAE493A3F8E493A3C8C582C8CAC583CA85
:1000A200F0A3C8C582C8CAC583CADFE9DEE780BE3D
:01024B0000B2
:10015400BB010CE58229F582E5833AF583E0225060
:1001640006E92582F8E622BBFE06E92582F8E222AA
:0D017400E58229F582E5833AF583E49322C4
:10018100F8BB010DE58229F582E5833AF583E8F0B4
:10019100225006E92582C8F622BBFE05E92582C860
:0201A100F22248
:00000001FF
