:10092500EF1FAC0670011E4C600A7D027CEFDCFEF9
:04093500DDFC80EC79
:01093900229B
:1003B5007537147590FFC2932097147F147E001231
:1003C50009253097FD7F147E0012092575373120E8
:1003D50096147F147E001209253096FD7F147E0049
:1003E5001209257537352095147F147E00120925CD
:1003F5003095FD7F147E0012092575373920941438
:100405007F147E001209253094FD7F147E001209A9
:100415002575370D7590FFC2922097147F147E00C5
:100425001209253097FD7F147E0012092575373294
:100435002096147F147E001209253096FD7F147EC8
:10044500001209257537362095147F147E00120990
:10045500253095FD7F147E001209257537302094CF
:10046500147F147E001209253094FD7F147E00123E
:10047500092575370E7590FFC2912097147F147E5C
:10048500001209253097FD7F147E00120925753766
:10049500332096147F147E001209253096FD7F14B3
:1004A5007E001209257537372095147F147E0012BA
:1004B50009253095FD7F147E0012092575370B201F
:1004C50094147F147E001209253094FD7F147E005C
:1004D50012092575370F7590FFC2902097147F1468
:1004E5007E001209253097FD7F147E0012092575BF
:1004F50037342096147F147E001209253096FD7F2F
:10050500147E001209257537382095147F147E0056
:100515001209253095FD7F147E0012092575370CCB
:100525002094147F147E001209253094FD7F147EDB
:0905350000120925753710AF37DB
:01053E00229A
:0E07A1000C2A3F065B4F666D7D077F6F790067
:10073400EF14B40800505490074975F003A4C5831E
:1007440025F0C58373020761020765020769020782
:100754006D020771020779020781020789D2A4801A
:100764000ED2A48012D2A48016D2A4801AC2A4D21B
:10077400A3D2A28016C2A4D2A3C2A2800EC2A4C2D3
:10078400A3D2A28006C2A4C2A3C2A2742A2DF8E6F0
:0D079400F5807F017E00120925E4F580222A
:1008DB0075985043878053890F438920758BF47526
:0B08EB008DF4C2ABD28ED2AFD2AC2293
:08095C008F993099FDC2992228
:100828008B378A388939AB37AA38A9391201C7609A
:100838001A0539E5397002053814F91201C7FF1293
:0C084800095C7F0A7E0012092580DB227B
:10093A005365746F6B21007077644F4B21005772B7
:05094A006F6E67210043
:1007AF000A1F000000000000000000000A090000FE
:1007BF000000000000000000011900011A000116DE
:1007CF000001170001290001151401130001183051
:0607DF00010800011400F6
:10053F001208DB12094F7FE87E031209251203B55B
:10054F008F1512094F1208548F1E8E1D8D1C8C1B78
:10055F00E4FFFE7DA07C41AB1EAA1DA91CA81B12A7
:10056F0000C650057513018003E4F513E51A600CFE
:10057F00E4F51A7BFF7A09793A120828E515C39436
:10058F00304014E515D39439500DAF170517740982
:10059F002FF8A615751901E515B40B03750801E5BC
:1005AF0015B40C13E4F519F516F517FE7F0AFDFBCC
:1005BF007A007909120389E5196044E509600DC3D2
:1005CF009518FDE49400FC7F01120734E50A600DD5
:1005DF00C39518FDE49400FC7F02120734E50B600D
:1005EF000DC39518FDE49400FC7F03120734E50C4E
:1005FF00600DC39518FDE49400FC7F04120734E5E9
:10060F001764047079E5086075E4F50878097C00D3
:10061F00FDFB7A00791F12036CEF70237BFF7A09C1
:10062F007941120828E5136052E4F5A07FE87E03B4
:10063F0012092575A0FF7FD07E07120880803C78B5
:10064F00097C007D007B007A00791F12036CEF603C
:10065F002A7516017BFF7A097948120828E513607D
:10066F001AE4F5367F2C7E011208807F2C7E011252
:10067F0009250536E536C3940440E9E4F517E51678
:10068F00700302054C7D0A7C007F07120734E4FDDE
:09069F00FC7F0812073402054C2F
:030023000207E6EB
:0D07E600C0E0C0D075D000C000C006C00744
:1007F300309827AF99EF640A601BE529C39404502E
:100803000AAE290529741F2EF8A607E529B40408A2
:0A081300751A018003752900C298D0
:0B081D00D007D006D000D0D0D0E032D1
:05096400007FF7DFFE3B
:01096900226B
:04088000AD07AC060E
:10088400E4FBFAED25E0FFEC33FEC3EB9FEA9E5058
:0D0894000CB2A51209640BBB00010A80E63E
:0108A1002234
:0D094F001200037FCC1208F67F440208F668
:100854001200037FCC1208F67FBE1208F61208A21B
:100864008F371208A2EFFEE537FFFDAC06EC12014C
:0B08740044E4FBFA798078411200296F
:01087F002256
:10000300C2AFD2B7C2B77FF7DFFED2B77F20DFFE22
:0D001300A2B7E433FE7FF7DFFED2AFAF06E9
:0100200022BD
:10090F00C2AFC2B77E04DEFEEF24FF92B77E18DEC1
:05091F00FED2B7D2AFCB
:0109240022B0
:1008BF00C2AFC2B77F02DFFED2B77F02DFFEA2B7A1
:0B08CF00E433FE7F18DFFED2AFAF065F
:0108DA0022FB
:0208F600AD074C
:1008F800E4FC7401A804088002C333D8FC5DFF122D
:06090800090F0CBC08EC15
:01090E0022C6
:1008A200E4FDFC1208BFEF600D7401A80408800289
:0C08B200C333D8FC42050CBC08E9AF05BC
:0108BE002217
:100026000201BCEC5D046005E8590470030201B2EC
:1000360012017D580460F6EC4860F2EC7004FDFE97
:10004600FF22C860DB2481C85009C39860025006AD
:100056000201B99850CAF582E9294B4A7005AB826C
:100066000201A875F0007C1A7880C3EF9BEE9AED2A
:1000760099400DC3EF9BFFEE9AFEED99FDE842F025
:10008600DC23ACF0D0E0FFD0E0FED0E0FDAB822078
:10009600E7101BEB60BAEC2CFCEF33FFEE33FEED02
:1000A60033FD020194E803F830E705C0F075F0006F
:1000B600EF2FFFEE33FEED33FD40B830E7C280AAE6
:1000C60074F8CC6480CCC86480C8F58204604FC3E1
:1000D600EB9FF5F0EA9E42F0E99D42F0E89C45F080
:1000E600603C501DE5825FFFE582D313CB5BCBF40A
:1000F6002B5582FB50280ABA002409B90020088033
:100106001DE5825BFBE582D313CF5FCFF4C3132FCC
:100116005582FF50090EBE00050DBD00010CC3EB54
:100126009FF5F0EA9E42F0E99D42F0E89C45F060BA
:0901360007CC4820E701B3EC22DC
:10013F0075F020800E75F010800575F0087D007E3B
:10014F00007F003392D530D5031201E0EC3340101D
:10015F00EF33FFEE33FEED33FDEC33FCD5F0ED2244
:0E016F00E5F0247EA2D513CC92E7CDCEFF2280
:10017D00E9D2E7C933E833F892D5EDD2E7CD33ECC8
:07018D0033FC5002B2D52241
:10019400EC30E7100FBF000C0EBE00080DBD0004CC
:1001A4000BEB6014A2D5EB13FCED92E7FD2274FF78
:1001B400FCFDFEFF22E480F8A2D574FF13FC7D80D1
:0301C400E480EFE5
:030000000206A84D
:0C06A800787FE4F6D8FD7581390206EF7A
:1001C700BB010689828A83E0225002E722BBFE0236
:0901D700E32289828A83E4932269
:0E01E000C3E49FFFE49EFEE49DFDE49CFC2230
:1001EE00E3F5F009E208B5F06D606B80F3E3F5F02E
:1001FE0009E608B5F060605E80F387F009E608B5A1
:10020E00F054605280F487F009E208B5F048604679
:10021E0080F488828C8387F009E0A3B5F0386036CD
:10022E0080F488828C8387F009E493A3B5F027606D
:10023E002580F388828C83E3F5F009E0A3B5F016F0
:10024E00601480F388828C83E3F5F009E493A3B500
:10025E00F004600280F2020319808580E7808E80B0
:10026E00D2803C8015806C807E809B80B5808B8098
:10027E00A1804F8070803A02032589828A83ECFA2E
:10028E00E493F5F0A3C8C582C8CCC583CCE493A390
:10029E00C8C582C8CCC583CCB5F070606E80E189CC
:1002AE00828A83E493F5F0A3E208B5F05E605C8089
:1002BE00F289828A83E0F5F0A3E608B5F04D604B33
:1002CE0080F389828A83E0F5F0A3E208B5F03C6002
:1002DE003A80F389828A83E493F5F0A3E608B5F0B9
:1002EE002A602880F2805389828A83ECFAE493F59F
:1002FE00F0A3C8C582C8CCC583CCE0A3C8C582C84C
:10030E00CCC583CCB5F004600280E27FFFB5F0026D
:10031E000F2240027F012289828A83ECFAE0F5F0F7
:10032E00A3C8C582C8CCC583CCE0A3C8C582C8CC3F
:10033E00C583CCB5F0D560D380E389828A83ECFA8D
:10034E00E0F5F0A3C8C582C8CCC583CCE493A3C89E
:10035E00C582C8CCC583CCB5F0B160AF80E288F061
:10036E00ED2402B4040050A3F582EB2402B4040081
:0B037E005099232345822390026773EF
:10038900EF4E6012EF60010EEDBB010B89828A838B
:10039900F0A3DFFCDEFA2289F05007F709DFFCA998
:0C03A900F022BBFEFCF309DFFCA9F022EF
:1006B40002053FE493A3F8E493A34003F68001F218
:1006C40008DFF48029E493A3F85407240CC8C33347
:1006D400C4540F4420C8834004F456800146F6DF16
:1006E400E4800B01020408102040809007A1E47EFE
:1006F400019360BCA3FF543F30E509541FFEE4930B
:10070400A360010ECF54C025E060A840B8E493A3D1
:10071400FAE493A3F8E493A3C8C582C8CAC583CAFC
:10072400F0A3C8C582C8CAC583CADFE9DEE780BEB4
:0107E5000013
:00000001FF
